{
  "contractName": "DocumentRegistry",
  "abi": [
    {
      "inputs": [
        {
          "internalType": "string",
          "name": "_cnic",
          "type": "string"
        },
        {
          "internalType": "string",
          "name": "_documentType",
          "type": "string"
        },
        {
          "internalType": "string",
          "name": "_description",
          "type": "string"
        },
        {
          "internalType": "string",
          "name": "_ipfsHash",
          "type": "string"
        }
      ],
      "name": "uploadDocument",
      "outputs": [],
      "stateMutability": "nonpayable",
      "type": "function"
    },
    {
      "inputs": [
        {
          "internalType": "string",
          "name": "_cnic",
          "type": "string"
        }
      ],
      "name": "getDocumentCount",
      "outputs": [
        {
          "internalType": "uint256",
          "name": "",
          "type": "uint256"
        }
      ],
      "stateMutability": "view",
      "type": "function",
      "constant": true
    },
    {
      "inputs": [
        {
          "internalType": "string",
          "name": "_cnic",
          "type": "string"
        },
        {
          "internalType": "uint256",
          "name": "index",
          "type": "uint256"
        }
      ],
      "name": "getDocumentByIndex",
      "outputs": [
        {
          "internalType": "string",
          "name": "",
          "type": "string"
        },
        {
          "internalType": "string",
          "name": "",
          "type": "string"
        },
        {
          "internalType": "string",
          "name": "",
          "type": "string"
        },
        {
          "internalType": "address",
          "name": "",
          "type": "address"
        }
      ],
      "stateMutability": "view",
      "type": "function",
      "constant": true
    }
  ],
  "bytecode": "0x608060405234801561001057600080fd5b506107ed806100206000396000f3fe608060405234801561001057600080fd5b50600436106100415760003560e01c80633ef9d9e1146100465780636a7000fe1461005b578063d55ce03914610087575b600080fd5b61005961005436600461046a565b6100a8565b005b61006e610069366004610517565b610163565b60405161007e94939291906105ac565b60405180910390f35b61009a6100953660046105ff565b6103a0565b60405190815260200161007e565b6000846040516100b8919061063c565b908152604080519182900360209081018320608084018352868452838201869052918301849052336060840152815460018101835560009283529120825160049092020190819061010990826106e1565b506020820151600182019061011e90826106e1565b506040820151600282019061013390826106e1565b5060609190910151600390910180546001600160a01b0319166001600160a01b0390921691909117905550505050565b606080606060008060008760405161017b919061063c565b9081526020016040518091039020868154811061019a5761019a6107a1565b90600052602060002090600402016040518060800160405290816000820180546101c390610658565b80601f01602080910402602001604051908101604052809291908181526020018280546101ef90610658565b801561023c5780601f106102115761010080835404028352916020019161023c565b820191906000526020600020905b81548152906001019060200180831161021f57829003601f168201915b5050505050815260200160018201805461025590610658565b80601f016020809104026020016040519081016040528092919081815260200182805461028190610658565b80156102ce5780601f106102a3576101008083540402835291602001916102ce565b820191906000526020600020905b8154815290600101906020018083116102b157829003601f168201915b505050505081526020016002820180546102e790610658565b80601f016020809104026020016040519081016040528092919081815260200182805461031390610658565b80156103605780601f1061033557610100808354040283529160200191610360565b820191906000526020600020905b81548152906001019060200180831161034357829003601f168201915b5050509183525050600391909101546001600160a01b03166020918201528151908201516040830151606090930151919a90995091975095509350505050565b600080826040516103b1919061063c565b9081526040519081900360200190205492915050565b634e487b7160e01b600052604160045260246000fd5b600082601f8301126103ee57600080fd5b813567ffffffffffffffff80821115610409576104096103c7565b604051601f8301601f19908116603f01168101908282118183101715610431576104316103c7565b8160405283815286602085880101111561044a57600080fd5b836020870160208301376000602085830101528094505050505092915050565b6000806000806080858703121561048057600080fd5b843567ffffffffffffffff8082111561049857600080fd5b6104a4888389016103dd565b955060208701359150808211156104ba57600080fd5b6104c6888389016103dd565b945060408701359150808211156104dc57600080fd5b6104e8888389016103dd565b935060608701359150808211156104fe57600080fd5b5061050b878288016103dd565b91505092959194509250565b6000806040838503121561052a57600080fd5b823567ffffffffffffffff81111561054157600080fd5b61054d858286016103dd565b95602094909401359450505050565b60005b8381101561057757818101518382015260200161055f565b50506000910152565b6000815180845261059881602086016020860161055c565b601f01601f19169290920160200192915050565b6080815260006105bf6080830187610580565b82810360208401526105d18187610580565b905082810360408401526105e58186610580565b91505060018060a01b038316606083015295945050505050565b60006020828403121561061157600080fd5b813567ffffffffffffffff81111561062857600080fd5b610634848285016103dd565b949350505050565b6000825161064e81846020870161055c565b9190910192915050565b600181811c9082168061066c57607f821691505b60208210810361068c57634e487b7160e01b600052602260045260246000fd5b50919050565b601f8211156106dc57600081815260208120601f850160051c810160208610156106b95750805b601f850160051c820191505b818110156106d8578281556001016106c5565b5050505b505050565b815167ffffffffffffffff8111156106fb576106fb6103c7565b61070f816107098454610658565b84610692565b602080601f831160018114610744576000841561072c5750858301515b600019600386901b1c1916600185901b1785556106d8565b600085815260208120601f198616915b8281101561077357888601518255948401946001909101908401610754565b50858210156107915787850151600019600388901b60f8161c191681555b5050505050600190811b01905550565b634e487b7160e01b600052603260045260246000fdfea264697066735822122057ab219a936600ec6dc8a0d39ae1a3873e2667894bab51e448f1a9fa888bc46864736f6c63430008120033",
  "immutableReferences": {},
  "source": "// // SPDX-License-Identifier: MIT\r\npragma solidity ^0.8.0;\r\n\r\ncontract DocumentRegistry {\r\n    struct Document {\r\n        string documentType;\r\n        string description;\r\n        string ipfsHash;\r\n        address uploadedBy;\r\n    }\r\n\r\n    mapping(string => Document[]) private documentsByCnic;\r\n\r\n    function uploadDocument(\r\n        string memory _cnic,\r\n        string memory _documentType,\r\n        string memory _description,\r\n        string memory _ipfsHash\r\n    ) public {\r\n        documentsByCnic[_cnic].push(Document({\r\n            documentType: _documentType,\r\n            description: _description,\r\n            ipfsHash: _ipfsHash,\r\n            uploadedBy: msg.sender\r\n        }));\r\n    }\r\n\r\n    //  Get number of documents for a CNIC\r\n    function getDocumentCount(string memory _cnic) public view returns (uint) {\r\n        return documentsByCnic[_cnic].length;\r\n    }\r\n\r\n    //  Get a single document by index\r\n    function getDocumentByIndex(string memory _cnic, uint index) public view returns (\r\n        string memory, string memory, string memory, address\r\n    ) {\r\n        Document memory doc = documentsByCnic[_cnic][index];\r\n        return (doc.documentType, doc.description, doc.ipfsHash, doc.uploadedBy);\r\n    }\r\n}\r\n",
  "sourcePath": "C:\\Users\\Syeda fatimah\\Desktop\\TrafFix-Dashboard-aka-FRfrontend-main\\contracts\\DocumentRegistry.sol",
  "compiler": {
    "name": "solc",
    "version": "0.8.18+commit.87f61d96.Emscripten.clang"
  },
  "schemaVersion": "3.4.16",
  "updatedAt": "2025-06-07T20:16:06.300Z",
  "networkType": "ethereum",
  "devdoc": {
    "kind": "dev",
    "methods": {},
    "version": 1
  },
  "userdoc": {
    "kind": "user",
    "methods": {},
    "version": 1
  }
}