{
    "contractName": "Grievance",
    "abi": [
        {
            "anonymous": false,
            "inputs": [
                {
                    "indexed": false,
                    "internalType": "uint256",
                    "name": "id",
                    "type": "uint256"
                },
                {
                    "indexed": false,
                    "internalType": "address",
                    "name": "user",
                    "type": "address"
                },
                {
                    "indexed": false,
                    "internalType": "string",
                    "name": "status",
                    "type": "string"
                }
            ],
            "name": "ComplaintFiled",
            "type": "event"
        },
        {
            "inputs": [],
            "name": "complaintCount",
            "outputs": [
                {
                    "internalType": "uint256",
                    "name": "",
                    "type": "uint256"
                }
            ],
            "stateMutability": "view",
            "type": "function",
            "constant": true
        },
        {
            "inputs": [
                {
                    "internalType": "uint256",
                    "name": "",
                    "type": "uint256"
                }
            ],
            "name": "complaints",
            "outputs": [
                {
                    "internalType": "uint256",
                    "name": "id",
                    "type": "uint256"
                },
                {
                    "internalType": "address",
                    "name": "user",
                    "type": "address"
                },
                {
                    "internalType": "string",
                    "name": "category",
                    "type": "string"
                },
                {
                    "internalType": "string",
                    "name": "description",
                    "type": "string"
                },
                {
                    "internalType": "string",
                    "name": "officerName",
                    "type": "string"
                },
                {
                    "internalType": "string",
                    "name": "date",
                    "type": "string"
                },
                {
                    "internalType": "string",
                    "name": "time",
                    "type": "string"
                },
                {
                    "internalType": "uint256",
                    "name": "timestamp",
                    "type": "uint256"
                },
                {
                    "internalType": "string",
                    "name": "status",
                    "type": "string"
                }
            ],
            "stateMutability": "view",
            "type": "function",
            "constant": true
        },
        {
            "inputs": [
                {
                    "internalType": "address",
                    "name": "",
                    "type": "address"
                },
                {
                    "internalType": "uint256",
                    "name": "",
                    "type": "uint256"
                }
            ],
            "name": "userComplaints",
            "outputs": [
                {
                    "internalType": "uint256",
                    "name": "",
                    "type": "uint256"
                }
            ],
            "stateMutability": "view",
            "type": "function",
            "constant": true
        },
        {
            "inputs": [
                {
                    "internalType": "string",
                    "name": "description",
                    "type": "string"
                },
                {
                    "internalType": "string",
                    "name": "officerName",
                    "type": "string"
                },
                {
                    "internalType": "string",
                    "name": "category",
                    "type": "string"
                },
                {
                    "internalType": "string",
                    "name": "date",
                    "type": "string"
                },
                {
                    "internalType": "string",
                    "name": "time",
                    "type": "string"
                }
            ],
            "name": "fileComplaint",
            "outputs": [],
            "stateMutability": "nonpayable",
            "type": "function"
        },
        {
            "inputs": [
                {
                    "internalType": "address",
                    "name": "user",
                    "type": "address"
                }
            ],
            "name": "getComplaintsByUser",
            "outputs": [
                {
                    "components": [
                        {
                            "internalType": "uint256",
                            "name": "id",
                            "type": "uint256"
                        },
                        {
                            "internalType": "address",
                            "name": "user",
                            "type": "address"
                        },
                        {
                            "internalType": "string",
                            "name": "category",
                            "type": "string"
                        },
                        {
                            "internalType": "string",
                            "name": "description",
                            "type": "string"
                        },
                        {
                            "internalType": "string",
                            "name": "officerName",
                            "type": "string"
                        },
                        {
                            "internalType": "string",
                            "name": "date",
                            "type": "string"
                        },
                        {
                            "internalType": "string",
                            "name": "time",
                            "type": "string"
                        },
                        {
                            "internalType": "uint256",
                            "name": "timestamp",
                            "type": "uint256"
                        },
                        {
                            "internalType": "string",
                            "name": "status",
                            "type": "string"
                        }
                    ],
                    "internalType": "struct Grievance.Complaint[]",
                    "name": "",
                    "type": "tuple[]"
                }
            ],
            "stateMutability": "view",
            "type": "function",
            "constant": true
        }
    ],
    "bytecode": "0x60806040526000805534801561001457600080fd5b5061114a806100246000396000f3fe608060405234801561001057600080fd5b50600436106100575760003560e01c80631c2e7e531461005c5780632edea29414610071578063300505c81461008d5780637e69e912146100a05780639d8885aa146100c8575b600080fd5b61006f61006a366004610c2f565b6100e8565b005b61007a60005481565b6040519081526020015b60405180910390f35b61007a61009b366004610d1d565b6102a0565b6100b36100ae366004610d47565b6102d1565b60405161008499989796959493929190610da6565b6100db6100d6366004610e4c565b610653565b6040516100849190610e6e565b6040805161012081018252600080548083523360208085019182528486018b8152606086018b9052608086018a905260a0860189905260c086018890524260e0870152865180880188526005815264119a5b195960da1b818401526101008701529284526001908190529490922083518155915193820180546001600160a01b0319166001600160a01b0390951694909417909355915190919060028201906101919082611017565b50606082015160038201906101a69082611017565b50608082015160048201906101bb9082611017565b5060a082015160058201906101d09082611017565b5060c082015160068201906101e59082611017565b5060e0820151600782015561010082015160088201906102059082611017565b505033600081815260026020908152604080832083548154600181018355918552838520909101559154825190815290810192909252606090820181905260059082015264119a5b195960da1b60808201527f8595bcecb09c4534964a380264b775fa70ef494dc17c9808faf0a143a526ef02915060a00160405180910390a1600080549080610294836110d7565b91905055505050505050565b600260205281600052604060002081815481106102bc57600080fd5b90600052602060002001600091509150505481565b60016020819052600091825260409091208054918101546002820180546001600160a01b03909216929161030490610f8e565b80601f016020809104026020016040519081016040528092919081815260200182805461033090610f8e565b801561037d5780601f106103525761010080835404028352916020019161037d565b820191906000526020600020905b81548152906001019060200180831161036057829003601f168201915b50505050509080600301805461039290610f8e565b80601f01602080910402602001604051908101604052809291908181526020018280546103be90610f8e565b801561040b5780601f106103e05761010080835404028352916020019161040b565b820191906000526020600020905b8154815290600101906020018083116103ee57829003601f168201915b50505050509080600401805461042090610f8e565b80601f016020809104026020016040519081016040528092919081815260200182805461044c90610f8e565b80156104995780601f1061046e57610100808354040283529160200191610499565b820191906000526020600020905b81548152906001019060200180831161047c57829003601f168201915b5050505050908060050180546104ae90610f8e565b80601f01602080910402602001604051908101604052809291908181526020018280546104da90610f8e565b80156105275780601f106104fc57610100808354040283529160200191610527565b820191906000526020600020905b81548152906001019060200180831161050a57829003601f168201915b50505050509080600601805461053c90610f8e565b80601f016020809104026020016040519081016040528092919081815260200182805461056890610f8e565b80156105b55780601f1061058a576101008083540402835291602001916105b5565b820191906000526020600020905b81548152906001019060200180831161059857829003601f168201915b5050505050908060070154908060080180546105d090610f8e565b80601f01602080910402602001604051908101604052809291908181526020018280546105fc90610f8e565b80156106495780601f1061061e57610100808354040283529160200191610649565b820191906000526020600020905b81548152906001019060200180831161062c57829003601f168201915b5050505050905089565b6001600160a01b03811660009081526002602090815260408083208054825181850281018501909352808352606094938301828280156106b257602002820191906000526020600020905b81548152602001906001019080831161069e575b505050505090506000815167ffffffffffffffff8111156106d5576106d5610b8c565b60405190808252806020026020018201604052801561075e57816020015b61074b6040518061012001604052806000815260200160006001600160a01b03168152602001606081526020016060815260200160608152602001606081526020016060815260200160008152602001606081525090565b8152602001906001900390816106f35790505b50905060005b8251811015610b845760016000848381518110610783576107836110fe565b6020026020010151815260200190815260200160002060405180610120016040529081600082015481526020016001820160009054906101000a90046001600160a01b03166001600160a01b03166001600160a01b031681526020016002820180546107ee90610f8e565b80601f016020809104026020016040519081016040528092919081815260200182805461081a90610f8e565b80156108675780601f1061083c57610100808354040283529160200191610867565b820191906000526020600020905b81548152906001019060200180831161084a57829003601f168201915b5050505050815260200160038201805461088090610f8e565b80601f01602080910402602001604051908101604052809291908181526020018280546108ac90610f8e565b80156108f95780601f106108ce576101008083540402835291602001916108f9565b820191906000526020600020905b8154815290600101906020018083116108dc57829003601f168201915b5050505050815260200160048201805461091290610f8e565b80601f016020809104026020016040519081016040528092919081815260200182805461093e90610f8e565b801561098b5780601f106109605761010080835404028352916020019161098b565b820191906000526020600020905b81548152906001019060200180831161096e57829003601f168201915b505050505081526020016005820180546109a490610f8e565b80601f01602080910402602001604051908101604052809291908181526020018280546109d090610f8e565b8015610a1d5780601f106109f257610100808354040283529160200191610a1d565b820191906000526020600020905b815481529060010190602001808311610a0057829003601f168201915b50505050508152602001600682018054610a3690610f8e565b80601f0160208091040260200160405190810160405280929190818152602001828054610a6290610f8e565b8015610aaf5780601f10610a8457610100808354040283529160200191610aaf565b820191906000526020600020905b815481529060010190602001808311610a9257829003601f168201915b5050505050815260200160078201548152602001600882018054610ad290610f8e565b80601f0160208091040260200160405190810160405280929190818152602001828054610afe90610f8e565b8015610b4b5780601f10610b2057610100808354040283529160200191610b4b565b820191906000526020600020905b815481529060010190602001808311610b2e57829003601f168201915b505050505081525050828281518110610b6657610b666110fe565b60200260200101819052508080610b7c906110d7565b915050610764565b509392505050565b634e487b7160e01b600052604160045260246000fd5b600082601f830112610bb357600080fd5b813567ffffffffffffffff80821115610bce57610bce610b8c565b604051601f8301601f19908116603f01168101908282118183101715610bf657610bf6610b8c565b81604052838152866020858801011115610c0f57600080fd5b836020870160208301376000602085830101528094505050505092915050565b600080600080600060a08688031215610c4757600080fd5b853567ffffffffffffffff80821115610c5f57600080fd5b610c6b89838a01610ba2565b96506020880135915080821115610c8157600080fd5b610c8d89838a01610ba2565b95506040880135915080821115610ca357600080fd5b610caf89838a01610ba2565b94506060880135915080821115610cc557600080fd5b610cd189838a01610ba2565b93506080880135915080821115610ce757600080fd5b50610cf488828901610ba2565b9150509295509295909350565b80356001600160a01b0381168114610d1857600080fd5b919050565b60008060408385031215610d3057600080fd5b610d3983610d01565b946020939093013593505050565b600060208284031215610d5957600080fd5b5035919050565b6000815180845260005b81811015610d8657602081850181015186830182015201610d6a565b506000602082860101526020601f19601f83011685010191505092915050565b8981526001600160a01b038916602082015261012060408201819052600090610dd18382018b610d60565b90508281036060840152610de5818a610d60565b90508281036080840152610df98189610d60565b905082810360a0840152610e0d8188610d60565b905082810360c0840152610e218187610d60565b90508460e0840152828103610100840152610e3c8185610d60565b9c9b505050505050505050505050565b600060208284031215610e5e57600080fd5b610e6782610d01565b9392505050565b60006020808301818452808551808352604092508286019150828160051b87010184880160005b83811015610f8057603f19898403018552815180518452878101516001600160a01b0316888501528681015161012088860181905290610ed782870182610d60565b91505060608083015186830382880152610ef18382610d60565b9250505060808083015186830382880152610f0c8382610d60565b9250505060a08083015186830382880152610f278382610d60565b9250505060c08083015186830382880152610f428382610d60565b9250505060e08083015181870152506101008083015192508582038187015250610f6c8183610d60565b968901969450505090860190600101610e95565b509098975050505050505050565b600181811c90821680610fa257607f821691505b602082108103610fc257634e487b7160e01b600052602260045260246000fd5b50919050565b601f82111561101257600081815260208120601f850160051c81016020861015610fef5750805b601f850160051c820191505b8181101561100e57828155600101610ffb565b5050505b505050565b815167ffffffffffffffff81111561103157611031610b8c565b6110458161103f8454610f8e565b84610fc8565b602080601f83116001811461107a57600084156110625750858301515b600019600386901b1c1916600185901b17855561100e565b600085815260208120601f198616915b828110156110a95788860151825594840194600190910190840161108a565b50858210156110c75787850151600019600388901b60f8161c191681555b5050505050600190811b01905550565b6000600182016110f757634e487b7160e01b600052601160045260246000fd5b5060010190565b634e487b7160e01b600052603260045260246000fdfea264697066735822122064a699eb434182b8e0be8be1be44899f9fecab501904673b51dd4a60bd3c3ca464736f6c63430008120033",
    "immutableReferences": {},
    "source": "// // SPDX-License-Identifier: MIT\npragma solidity ^0.8.18;\n\ncontract Grievance {\n    struct Complaint {\n        uint id; \n        address user;\n        string category;    \n        string description;\n        string officerName;\n        string date;  // New field\n        string time;  // New field\n        uint timestamp;\n        string status; // e.g., \"Filed\", \"Under Review\", \"Resolved\"\n    }\n\n    uint public complaintCount = 0;\n    mapping(uint => Complaint) public complaints;\n    mapping(address => uint[]) public userComplaints;\n\n    event ComplaintFiled(uint id, address user, string status);\n\n    function fileComplaint(\n    string memory  description,\n    string memory officerName,\n    string memory category,\n    string memory  date,\n    string memory time\n    ) public {\n        complaints[complaintCount] = Complaint(\n            complaintCount,\n            msg.sender,\n            description,\n            officerName,\n             category,\n            date,\n            time,\n            block.timestamp,\n            \"Filed\"\n        );\n        userComplaints[msg.sender].push(complaintCount);\n\n        emit ComplaintFiled(complaintCount, msg.sender, \"Filed\");\n        complaintCount++;\n    }\n\n    function getComplaintsByUser(address user) public view returns (Complaint[] memory) {\n        uint[] memory ids = userComplaints[user];\n        Complaint[] memory userComplaintsArray = new Complaint[](ids.length);\n        for (uint i = 0; i < ids.length; i++) {\n            userComplaintsArray[i] = complaints[ids[i]];\n        }\n        return userComplaintsArray;\n    }\n}\n",
    "sourcePath": "C:\\Users\\Syeda fatimah\\Desktop\\TrafFix-Dashboard-aka-FRfrontend-main\\contracts\\Grievance.sol",
    "compiler": {
        "name": "solc",
        "version": "0.8.18+commit.87f61d96.Emscripten.clang"
    },
    "schemaVersion": "3.4.16",
    "updatedAt": "2025-04-28T20:06:07.990Z",
    "networkType": "ethereum",
    "devdoc": {
        "kind": "dev",
        "methods": {},
        "version": 1
    },
    "userdoc": {
        "kind": "user",
        "methods": {},
        "version": 1
    }
}