{
    "contractName": "TrafficChallan",
    "abi": [
        {
            "anonymous": false,
            "inputs": [
                {
                    "indexed": false,
                    "internalType": "uint256",
                    "name": "challanId",
                    "type": "uint256"
                }
            ],
            "name": "ChallanGenerated",
            "type": "event"
        },
        {
            "inputs": [],
            "name": "challanCount",
            "outputs": [
                {
                    "internalType": "uint256",
                    "name": "",
                    "type": "uint256"
                }
            ],
            "stateMutability": "view",
            "type": "function",
            "constant": true
        },
        {
            "inputs": [
                {
                    "internalType": "uint256",
                    "name": "",
                    "type": "uint256"
                }
            ],
            "name": "challans",
            "outputs": [
                {
                    "internalType": "uint256",
                    "name": "challanId",
                    "type": "uint256"
                },
                {
                    "internalType": "string",
                    "name": "vehicleNumber",
                    "type": "string"
                },
                {
                    "internalType": "string",
                    "name": "offense",
                    "type": "string"
                },
                {
                    "internalType": "uint256",
                    "name": "fineAmount",
                    "type": "uint256"
                },
                {
                    "internalType": "string",
                    "name": "date",
                    "type": "string"
                },
                {
                    "internalType": "string",
                    "name": "time",
                    "type": "string"
                }
            ],
            "stateMutability": "view",
            "type": "function",
            "constant": true
        },
        {
            "inputs": [
                {
                    "internalType": "string",
                    "name": "_vehicleNumber",
                    "type": "string"
                },
                {
                    "internalType": "string",
                    "name": "_offense",
                    "type": "string"
                },
                {
                    "internalType": "uint256",
                    "name": "_fineAmount",
                    "type": "uint256"
                },
                {
                    "internalType": "string",
                    "name": "_date",
                    "type": "string"
                },
                {
                    "internalType": "string",
                    "name": "_time",
                    "type": "string"
                }
            ],
            "name": "generateChallan",
            "outputs": [],
            "stateMutability": "nonpayable",
            "type": "function"
        },
        {
            "inputs": [
                {
                    "internalType": "uint256",
                    "name": "_challanId",
                    "type": "uint256"
                }
            ],
            "name": "getChallan",
            "outputs": [
                {
                    "internalType": "string",
                    "name": "vehicleNumber",
                    "type": "string"
                },
                {
                    "internalType": "string",
                    "name": "offense",
                    "type": "string"
                },
                {
                    "internalType": "uint256",
                    "name": "fineAmount",
                    "type": "uint256"
                },
                {
                    "internalType": "string",
                    "name": "date",
                    "type": "string"
                },
                {
                    "internalType": "string",
                    "name": "time",
                    "type": "string"
                }
            ],
            "stateMutability": "view",
            "type": "function",
            "constant": true
        }
    ],
    "bytecode": "0x60806040526000805534801561001457600080fd5b50610af7806100246000396000f3fe608060405234801561001057600080fd5b506004361061004c5760003560e01c80635146b42f146100515780635910aa7a1461007e57806362010b6a146100935780639c1cfb61146100aa575b600080fd5b61006461005f3660046106d3565b6100cf565b604051610075959493929190610732565b60405180910390f35b61009161008c366004610834565b610380565b005b61009c60005481565b604051908152602001610075565b6100bd6100b83660046106d3565b61047f565b604051610075969594939291906108eb565b60608060006060806000600160008881526020019081526020016000206040518060c00160405290816000820154815260200160018201805461011190610951565b80601f016020809104026020016040519081016040528092919081815260200182805461013d90610951565b801561018a5780601f1061015f5761010080835404028352916020019161018a565b820191906000526020600020905b81548152906001019060200180831161016d57829003601f168201915b505050505081526020016002820180546101a390610951565b80601f01602080910402602001604051908101604052809291908181526020018280546101cf90610951565b801561021c5780601f106101f15761010080835404028352916020019161021c565b820191906000526020600020905b8154815290600101906020018083116101ff57829003601f168201915b505050505081526020016003820154815260200160048201805461023f90610951565b80601f016020809104026020016040519081016040528092919081815260200182805461026b90610951565b80156102b85780601f1061028d576101008083540402835291602001916102b8565b820191906000526020600020905b81548152906001019060200180831161029b57829003601f168201915b505050505081526020016005820180546102d190610951565b80601f01602080910402602001604051908101604052809291908181526020018280546102fd90610951565b801561034a5780601f1061031f5761010080835404028352916020019161034a565b820191906000526020600020905b81548152906001019060200180831161032d57829003601f168201915b50505091909252505050602081015160408201516060830151608084015160a090940151929b919a509850919650945092505050565b60008054908061038f8361098b565b91905055506040518060c0016040528060005481526020018681526020018581526020018481526020018381526020018281525060016000805481526020019081526020016000206000820151816000015560208201518160010190816103f69190610a01565b506040820151600282019061040b9082610a01565b50606082015160038201556080820151600482019061042a9082610a01565b5060a0820151600582019061043f9082610a01565b50506000546040519081527f388560cc74feebcc79112cb08372e4f454eed2bb89f5eb09a3a9fc6531865ed9915060200160405180910390a15050505050565b6001602081905260009182526040909120805491810180546104a090610951565b80601f01602080910402602001604051908101604052809291908181526020018280546104cc90610951565b80156105195780601f106104ee57610100808354040283529160200191610519565b820191906000526020600020905b8154815290600101906020018083116104fc57829003601f168201915b50505050509080600201805461052e90610951565b80601f016020809104026020016040519081016040528092919081815260200182805461055a90610951565b80156105a75780601f1061057c576101008083540402835291602001916105a7565b820191906000526020600020905b81548152906001019060200180831161058a57829003601f168201915b5050505050908060030154908060040180546105c290610951565b80601f01602080910402602001604051908101604052809291908181526020018280546105ee90610951565b801561063b5780601f106106105761010080835404028352916020019161063b565b820191906000526020600020905b81548152906001019060200180831161061e57829003601f168201915b50505050509080600501805461065090610951565b80601f016020809104026020016040519081016040528092919081815260200182805461067c90610951565b80156106c95780601f1061069e576101008083540402835291602001916106c9565b820191906000526020600020905b8154815290600101906020018083116106ac57829003601f168201915b5050505050905086565b6000602082840312156106e557600080fd5b5035919050565b6000815180845260005b81811015610712576020818501810151868301820152016106f6565b506000602082860101526020601f19601f83011685010191505092915050565b60a08152600061074560a08301886106ec565b828103602084015261075781886106ec565b9050856040840152828103606084015261077181866106ec565b9050828103608084015261078581856106ec565b98975050505050505050565b634e487b7160e01b600052604160045260246000fd5b600082601f8301126107b857600080fd5b813567ffffffffffffffff808211156107d3576107d3610791565b604051601f8301601f19908116603f011681019082821181831017156107fb576107fb610791565b8160405283815286602085880101111561081457600080fd5b836020870160208301376000602085830101528094505050505092915050565b600080600080600060a0868803121561084c57600080fd5b853567ffffffffffffffff8082111561086457600080fd5b61087089838a016107a7565b9650602088013591508082111561088657600080fd5b61089289838a016107a7565b95506040880135945060608801359150808211156108af57600080fd5b6108bb89838a016107a7565b935060808801359150808211156108d157600080fd5b506108de888289016107a7565b9150509295509295909350565b86815260c06020820152600061090460c08301886106ec565b828103604084015261091681886106ec565b9050856060840152828103608084015261093081866106ec565b905082810360a084015261094481856106ec565b9998505050505050505050565b600181811c9082168061096557607f821691505b60208210810361098557634e487b7160e01b600052602260045260246000fd5b50919050565b6000600182016109ab57634e487b7160e01b600052601160045260246000fd5b5060010190565b601f8211156109fc57600081815260208120601f850160051c810160208610156109d95750805b601f850160051c820191505b818110156109f8578281556001016109e5565b5050505b505050565b815167ffffffffffffffff811115610a1b57610a1b610791565b610a2f81610a298454610951565b846109b2565b602080601f831160018114610a645760008415610a4c5750858301515b600019600386901b1c1916600185901b1785556109f8565b600085815260208120601f198616915b82811015610a9357888601518255948401946001909101908401610a74565b5085821015610ab15787850151600019600388901b60f8161c191681555b5050505050600190811b0190555056fea2646970667358221220100e98d56c9ef5b27dbe5cb37ca2079527415f7271586e48b72957c7ddf6afc664736f6c63430008120033",
    "immutableReferences": {},
    "source": "//  // SPDX-License-Identifier: MIT\r\npragma solidity ^0.8.18;\r\n\r\ncontract TrafficChallan {\r\n    uint256 public challanCount = 0;\r\n\r\n    struct Challan {\r\n        uint256 challanId;\r\n        string vehicleNumber;\r\n        string offense;\r\n        uint256 fineAmount;\r\n        string date;\r\n        string time;\r\n    }\r\n\r\n    mapping(uint256 => Challan) public challans;\r\n\r\n    event ChallanGenerated(uint256 challanId);\r\n\r\n    function generateChallan(\r\n        string memory _vehicleNumber,\r\n        string memory _offense,\r\n        uint256 _fineAmount,\r\n        string memory _date,\r\n        string memory _time\r\n    ) public {\r\n        challanCount++;\r\n        challans[challanCount] = Challan(challanCount, _vehicleNumber, _offense, _fineAmount, _date, _time);\r\n        emit ChallanGenerated(challanCount);\r\n    }\r\n\r\n    function getChallan(uint256 _challanId) public view returns (\r\n        string memory vehicleNumber,\r\n        string memory offense,\r\n        uint256 fineAmount,\r\n        string memory date,\r\n        string memory time\r\n    ) {\r\n        Challan memory c = challans[_challanId];\r\n        return (c.vehicleNumber, c.offense, c.fineAmount, c.date, c.time);\r\n    }\r\n}\r\n",
    "sourcePath": "C:\\Users\\Syeda fatimah\\Desktop\\TrafFix-Dashboard-aka-FRfrontend-main\\contracts\\TrafficChallan.sol",
    "compiler": {
        "name": "solc",
        "version": "0.8.18+commit.87f61d96.Emscripten.clang"
    },
    "schemaVersion": "3.4.16",
    "updatedAt": "2025-04-24T10:03:18.378Z",
    "networkType": "ethereum",
    "devdoc": {
        "kind": "dev",
        "methods": {},
        "version": 1
    },
    "userdoc": {
        "kind": "user",
        "methods": {},
        "version": 1
    }
}