{
  "contractName": "Grievance",
  "abi": [
    {
      "anonymous": false,
      "inputs": [
        {
          "indexed": false,
          "internalType": "uint256",
          "name": "id",
          "type": "uint256"
        },
        {
          "indexed": false,
          "internalType": "address",
          "name": "user",
          "type": "address"
        },
        {
          "indexed": false,
          "internalType": "string",
          "name": "status",
          "type": "string"
        }
      ],
      "name": "ComplaintFiled",
      "type": "event"
    },
    {
      "inputs": [],
      "name": "complaintCount",
      "outputs": [
        {
          "internalType": "uint256",
          "name": "",
          "type": "uint256"
        }
      ],
      "stateMutability": "view",
      "type": "function",
      "constant": true
    },
    {
      "inputs": [
        {
          "internalType": "uint256",
          "name": "",
          "type": "uint256"
        }
      ],
      "name": "complaints",
      "outputs": [
        {
          "internalType": "uint256",
          "name": "id",
          "type": "uint256"
        },
        {
          "internalType": "address",
          "name": "user",
          "type": "address"
        },
        {
          "internalType": "string",
          "name": "description",
          "type": "string"
        },
        {
          "internalType": "string",
          "name": "officerName",
          "type": "string"
        },
        {
          "internalType": "uint256",
          "name": "timestamp",
          "type": "uint256"
        },
        {
          "internalType": "string",
          "name": "status",
          "type": "string"
        }
      ],
      "stateMutability": "view",
      "type": "function",
      "constant": true
    },
    {
      "inputs": [
        {
          "internalType": "address",
          "name": "",
          "type": "address"
        },
        {
          "internalType": "uint256",
          "name": "",
          "type": "uint256"
        }
      ],
      "name": "userComplaints",
      "outputs": [
        {
          "internalType": "uint256",
          "name": "",
          "type": "uint256"
        }
      ],
      "stateMutability": "view",
      "type": "function",
      "constant": true
    },
    {
      "inputs": [
        {
          "internalType": "string",
          "name": "description",
          "type": "string"
        },
        {
          "internalType": "string",
          "name": "officerName",
          "type": "string"
        }
      ],
      "name": "fileComplaint",
      "outputs": [],
      "stateMutability": "nonpayable",
      "type": "function"
    },
    {
      "inputs": [
        {
          "internalType": "address",
          "name": "user",
          "type": "address"
        }
      ],
      "name": "getComplaintsByUser",
      "outputs": [
        {
          "components": [
            {
              "internalType": "uint256",
              "name": "id",
              "type": "uint256"
            },
            {
              "internalType": "address",
              "name": "user",
              "type": "address"
            },
            {
              "internalType": "string",
              "name": "description",
              "type": "string"
            },
            {
              "internalType": "string",
              "name": "officerName",
              "type": "string"
            },
            {
              "internalType": "uint256",
              "name": "timestamp",
              "type": "uint256"
            },
            {
              "internalType": "string",
              "name": "status",
              "type": "string"
            }
          ],
          "internalType": "struct Grievance.Complaint[]",
          "name": "",
          "type": "tuple[]"
        }
      ],
      "stateMutability": "view",
      "type": "function",
      "constant": true
    }
  ],
  "bytecode": "0x60806040526000805534801561001457600080fd5b50610c72806100246000396000f3fe608060405234801561001057600080fd5b50600436106100575760003560e01c80632edea2941461005c578063300505c8146100785780636d1727e91461008b5780637e69e912146100a05780639d8885aa146100c5575b600080fd5b61006560005481565b6040519081526020015b60405180910390f35b6100656100863660046107d4565b6100e5565b61009e6100993660046108a1565b610116565b005b6100b36100ae366004610905565b610274565b60405161006f96959493929190610964565b6100d86100d33660046109c7565b61044c565b60405161006f91906109e9565b6002602052816000526040600020818154811061010157600080fd5b90600052602060002001600091509150505481565b6040805160c0810182526000805480835233602080850191825284860188815260608601889052426080870152865180880188526005815264119a5b195960da1b8184015260a08701529284526001908190529490922083518155915193820180546001600160a01b0319166001600160a01b0390951694909417909355915190919060028201906101a89082610b3f565b50606082015160038201906101bd9082610b3f565b506080820151600482015560a082015160058201906101dc9082610b3f565b505033600081815260026020908152604080832083548154600181018355918552838520909101559154825190815290810192909252606090820181905260059082015264119a5b195960da1b60808201527f8595bcecb09c4534964a380264b775fa70ef494dc17c9808faf0a143a526ef02915060a00160405180910390a160008054908061026b83610bff565b91905055505050565b60016020819052600091825260409091208054918101546002820180546001600160a01b0390921692916102a790610ab6565b80601f01602080910402602001604051908101604052809291908181526020018280546102d390610ab6565b80156103205780601f106102f557610100808354040283529160200191610320565b820191906000526020600020905b81548152906001019060200180831161030357829003601f168201915b50505050509080600301805461033590610ab6565b80601f016020809104026020016040519081016040528092919081815260200182805461036190610ab6565b80156103ae5780601f10610383576101008083540402835291602001916103ae565b820191906000526020600020905b81548152906001019060200180831161039157829003601f168201915b5050505050908060040154908060050180546103c990610ab6565b80601f01602080910402602001604051908101604052809291908181526020018280546103f590610ab6565b80156104425780601f1061041757610100808354040283529160200191610442565b820191906000526020600020905b81548152906001019060200180831161042557829003601f168201915b5050505050905086565b6001600160a01b03811660009081526002602090815260408083208054825181850281018501909352808352606094938301828280156104ab57602002820191906000526020600020905b815481526020019060010190808311610497575b505050505090506000815167ffffffffffffffff8111156104ce576104ce6107fe565b60405190808252806020026020018201604052801561054157816020015b61052e6040518060c001604052806000815260200160006001600160a01b03168152602001606081526020016060815260200160008152602001606081525090565b8152602001906001900390816104ec5790505b50905060005b82518110156107b0576001600084838151811061056657610566610c26565b602002602001015181526020019081526020016000206040518060c0016040529081600082015481526020016001820160009054906101000a90046001600160a01b03166001600160a01b03166001600160a01b031681526020016002820180546105d090610ab6565b80601f01602080910402602001604051908101604052809291908181526020018280546105fc90610ab6565b80156106495780601f1061061e57610100808354040283529160200191610649565b820191906000526020600020905b81548152906001019060200180831161062c57829003601f168201915b5050505050815260200160038201805461066290610ab6565b80601f016020809104026020016040519081016040528092919081815260200182805461068e90610ab6565b80156106db5780601f106106b0576101008083540402835291602001916106db565b820191906000526020600020905b8154815290600101906020018083116106be57829003601f168201915b50505050508152602001600482015481526020016005820180546106fe90610ab6565b80601f016020809104026020016040519081016040528092919081815260200182805461072a90610ab6565b80156107775780601f1061074c57610100808354040283529160200191610777565b820191906000526020600020905b81548152906001019060200180831161075a57829003601f168201915b50505050508152505082828151811061079257610792610c26565b602002602001018190525080806107a890610bff565b915050610547565b509392505050565b80356001600160a01b03811681146107cf57600080fd5b919050565b600080604083850312156107e757600080fd5b6107f0836107b8565b946020939093013593505050565b634e487b7160e01b600052604160045260246000fd5b600082601f83011261082557600080fd5b813567ffffffffffffffff80821115610840576108406107fe565b604051601f8301601f19908116603f01168101908282118183101715610868576108686107fe565b8160405283815286602085880101111561088157600080fd5b836020870160208301376000602085830101528094505050505092915050565b600080604083850312156108b457600080fd5b823567ffffffffffffffff808211156108cc57600080fd5b6108d886838701610814565b935060208501359150808211156108ee57600080fd5b506108fb85828601610814565b9150509250929050565b60006020828403121561091757600080fd5b5035919050565b6000815180845260005b8181101561094457602081850181015186830182015201610928565b506000602082860101526020601f19601f83011685010191505092915050565b8681526001600160a01b038616602082015260c06040820181905260009061098e9083018761091e565b82810360608401526109a0818761091e565b905084608084015282810360a08401526109ba818561091e565b9998505050505050505050565b6000602082840312156109d957600080fd5b6109e2826107b8565b9392505050565b60006020808301818452808551808352604092508286019150828160051b87010184880160005b83811015610aa857888303603f19018552815180518452878101516001600160a01b0316888501528681015160c088860181905290610a518287018261091e565b91505060608083015186830382880152610a6b838261091e565b92505050608080830151818701525060a08083015192508582038187015250610a94818361091e565b968901969450505090860190600101610a10565b509098975050505050505050565b600181811c90821680610aca57607f821691505b602082108103610aea57634e487b7160e01b600052602260045260246000fd5b50919050565b601f821115610b3a57600081815260208120601f850160051c81016020861015610b175750805b601f850160051c820191505b81811015610b3657828155600101610b23565b5050505b505050565b815167ffffffffffffffff811115610b5957610b596107fe565b610b6d81610b678454610ab6565b84610af0565b602080601f831160018114610ba25760008415610b8a5750858301515b600019600386901b1c1916600185901b178555610b36565b600085815260208120601f198616915b82811015610bd157888601518255948401946001909101908401610bb2565b5085821015610bef5787850151600019600388901b60f8161c191681555b5050505050600190811b01905550565b600060018201610c1f57634e487b7160e01b600052601160045260246000fd5b5060010190565b634e487b7160e01b600052603260045260246000fdfea264697066735822122065fe71c49478cf125ad00f3ca34eaa4cea42b26a2309a012bbac597af74b7e3c64736f6c63430008120033",
  "immutableReferences": {},
  "source": "// SPDX-License-Identifier: MIT\r\npragma solidity ^0.8.0;\r\n\r\ncontract Grievance {\r\n    struct Complaint {\r\n        uint id;\r\n        address user;\r\n        string description;\r\n        string officerName;\r\n        uint timestamp;\r\n        string status; // e.g., \"Filed\", \"Under Review\", \"Resolved\"\r\n    }\r\n\r\n    uint public complaintCount = 0;\r\n    mapping(uint => Complaint) public complaints;\r\n    mapping(address => uint[]) public userComplaints;\r\n\r\n    event ComplaintFiled(uint id, address user, string status);\r\n\r\n    function fileComplaint(string memory description, string memory officerName) public {\r\n        complaints[complaintCount] = Complaint(\r\n            complaintCount,\r\n            msg.sender,\r\n            description,\r\n            officerName,\r\n            block.timestamp,\r\n            \"Filed\"\r\n        );\r\n        userComplaints[msg.sender].push(complaintCount);\r\n\r\n        emit ComplaintFiled(complaintCount, msg.sender, \"Filed\");\r\n        complaintCount++;\r\n    }\r\n\r\n    function getComplaintsByUser(address user) public view returns (Complaint[] memory) {\r\n        uint[] memory ids = userComplaints[user];\r\n        Complaint[] memory userComplaintsArray = new Complaint[](ids.length);\r\n        for (uint i = 0; i < ids.length; i++) {\r\n            userComplaintsArray[i] = complaints[ids[i]];\r\n        }\r\n        return userComplaintsArray;\r\n    }\r\n}\r\n",
  "sourcePath": "C:\\Users\\Syeda fatimah\\Desktop\\TrafFix Dashboard aka frontend\\contracts\\Grievance.sol",
  "compiler": {
    "name": "solc",
    "version": "0.8.18+commit.87f61d96.Emscripten.clang"
  },
  "schemaVersion": "3.4.16",
  "updatedAt": "2025-01-03T15:19:27.996Z",
  "networkType": "ethereum",
  "devdoc": {
    "kind": "dev",
    "methods": {},
    "version": 1
  },
  "userdoc": {
    "kind": "user",
    "methods": {},
    "version": 1
  }
}