{
  "contractName": "UserRegistry",
  "abi": [
    {
      "inputs": [
        {
          "internalType": "address",
          "name": "",
          "type": "address"
        }
      ],
      "name": "users",
      "outputs": [
        {
          "internalType": "string",
          "name": "name",
          "type": "string"
        },
        {
          "internalType": "string",
          "name": "email",
          "type": "string"
        },
        {
          "internalType": "address",
          "name": "walletAddress",
          "type": "address"
        }
      ],
      "stateMutability": "view",
      "type": "function"
    },
    {
      "inputs": [
        {
          "internalType": "string",
          "name": "_name",
          "type": "string"
        },
        {
          "internalType": "string",
          "name": "_email",
          "type": "string"
        }
      ],
      "name": "registerUser",
      "outputs": [],
      "stateMutability": "nonpayable",
      "type": "function"
    },
    {
      "inputs": [
        {
          "internalType": "address",
          "name": "_userAddress",
          "type": "address"
        }
      ],
      "name": "getUser",
      "outputs": [
        {
          "components": [
            {
              "internalType": "string",
              "name": "name",
              "type": "string"
            },
            {
              "internalType": "string",
              "name": "email",
              "type": "string"
            },
            {
              "internalType": "address",
              "name": "walletAddress",
              "type": "address"
            }
          ],
          "internalType": "struct UserRegistry.User",
          "name": "",
          "type": "tuple"
        }
      ],
      "stateMutability": "view",
      "type": "function"
    }
  ],
  "bytecode": "0x608060405234801561001057600080fd5b506107dd806100206000396000f3fe608060405234801561001057600080fd5b50600436106100415760003560e01c80631d2e4afd146100465780636f77926b1461005b578063a87430ba14610084575b600080fd5b6100596100543660046104eb565b6100a6565b005b61006e61006936600461054f565b610190565b60405161007b91906105c5565b60405180910390f35b61009761009236600461054f565b61030d565b60405161007b93929190610620565b33600090815260208190526040902060010180546100c39061065e565b1590506101165760405162461bcd60e51b815260206004820152601760248201527f5573657220616c72656164792072656769737465726564000000000000000000604482015260640160405180910390fd5b60408051606081018252838152602080820184905233828401819052600090815290819052919091208151819061014d90826106e7565b506020820151600182019061016290826106e7565b5060409190910151600290910180546001600160a01b0319166001600160a01b039092169190911790555050565b604080516060808201835280825260208201526000918101919091526001600160a01b038216600090815260208190526040908190208151606081019092528054829082906101de9061065e565b80601f016020809104026020016040519081016040528092919081815260200182805461020a9061065e565b80156102575780601f1061022c57610100808354040283529160200191610257565b820191906000526020600020905b81548152906001019060200180831161023a57829003601f168201915b505050505081526020016001820180546102709061065e565b80601f016020809104026020016040519081016040528092919081815260200182805461029c9061065e565b80156102e95780601f106102be576101008083540402835291602001916102e9565b820191906000526020600020905b8154815290600101906020018083116102cc57829003601f168201915b5050509183525050600291909101546001600160a01b031660209091015292915050565b6000602081905290815260409020805481906103289061065e565b80601f01602080910402602001604051908101604052809291908181526020018280546103549061065e565b80156103a15780601f10610376576101008083540402835291602001916103a1565b820191906000526020600020905b81548152906001019060200180831161038457829003601f168201915b5050505050908060010180546103b69061065e565b80601f01602080910402602001604051908101604052809291908181526020018280546103e29061065e565b801561042f5780601f106104045761010080835404028352916020019161042f565b820191906000526020600020905b81548152906001019060200180831161041257829003601f168201915b505050600290930154919250506001600160a01b031683565b634e487b7160e01b600052604160045260246000fd5b600082601f83011261046f57600080fd5b813567ffffffffffffffff8082111561048a5761048a610448565b604051601f8301601f19908116603f011681019082821181831017156104b2576104b2610448565b816040528381528660208588010111156104cb57600080fd5b836020870160208301376000602085830101528094505050505092915050565b600080604083850312156104fe57600080fd5b823567ffffffffffffffff8082111561051657600080fd5b6105228683870161045e565b9350602085013591508082111561053857600080fd5b506105458582860161045e565b9150509250929050565b60006020828403121561056157600080fd5b81356001600160a01b038116811461057857600080fd5b9392505050565b6000815180845260005b818110156105a557602081850181015186830182015201610589565b506000602082860101526020601f19601f83011685010191505092915050565b6020815260008251606060208401526105e1608084018261057f565b90506020840151601f198483030160408501526105fe828261057f565b604095909501516001600160a01b031660609490940193909352509192915050565b606081526000610633606083018661057f565b8281036020840152610645818661057f565b91505060018060a01b0383166040830152949350505050565b600181811c9082168061067257607f821691505b60208210810361069257634e487b7160e01b600052602260045260246000fd5b50919050565b601f8211156106e257600081815260208120601f850160051c810160208610156106bf5750805b601f850160051c820191505b818110156106de578281556001016106cb565b5050505b505050565b815167ffffffffffffffff81111561070157610701610448565b6107158161070f845461065e565b84610698565b602080601f83116001811461074a57600084156107325750858301515b600019600386901b1c1916600185901b1785556106de565b600085815260208120601f198616915b828110156107795788860151825594840194600190910190840161075a565b50858210156107975787850151600019600388901b60f8161c191681555b5050505050600190811b0190555056fea26469706673582212204f695e0933bb2280bc389f6bd3e8e70b96323372df36017fdd5f51d0060ddd7f64736f6c63430008120033",
  "immutableReferences": {},
  "source": "// SPDX-License-Identifier: MIT\r\npragma solidity ^0.8.18;\r\n\r\ncontract UserRegistry {\r\n    struct User {\r\n        string name;\r\n        string email;\r\n        address walletAddress;\r\n    }\r\n\r\n    mapping(address => User) public users;\r\n\r\n    function registerUser(string memory _name, string memory _email) public {\r\n        require(bytes(users[msg.sender].email).length == 0, \"User already registered\");\r\n        users[msg.sender] = User(_name, _email, msg.sender);\r\n    }\r\n\r\n    function getUser(address _userAddress) public view returns (User memory) {\r\n        return users[_userAddress];\r\n    }\r\n}\r\n",
  "sourcePath": "C:\\Users\\Syeda fatimah\\Desktop\\TrafFix Dashboard aka frontend\\contracts\\UserRegistry.sol",
  "compiler": {
    "name": "solc",
    "version": "0.8.18+commit.87f61d96.Emscripten.clang"
  },
  "schemaVersion": "3.4.16",
  "updatedAt": "2024-12-27T19:22:35.143Z",
  "devdoc": {
    "kind": "dev",
    "methods": {},
    "version": 1
  },
  "userdoc": {
    "kind": "user",
    "methods": {},
    "version": 1
  }
}